{
  "_format": "hh-sol-artifact-1",
  "contractName": "FilmDAO",
  "sourceName": "contracts/FilmDAO.sol",
  "abi": [
    {
      "inputs": [],
      "stateMutability": "nonpayable",
      "type": "constructor"
    },
    {
      "anonymous": false,
      "inputs": [
        {
          "indexed": true,
          "internalType": "address",
          "name": "previousOwner",
          "type": "address"
        },
        {
          "indexed": true,
          "internalType": "address",
          "name": "newOwner",
          "type": "address"
        }
      ],
      "name": "OwnershipTransferred",
      "type": "event"
    },
    {
      "stateMutability": "nonpayable",
      "type": "fallback"
    },
    {
      "inputs": [
        {
          "internalType": "uint256",
          "name": "",
          "type": "uint256"
        },
        {
          "internalType": "uint256",
          "name": "",
          "type": "uint256"
        }
      ],
      "name": "AbstainVoters",
      "outputs": [
        {
          "internalType": "address",
          "name": "",
          "type": "address"
        }
      ],
      "stateMutability": "view",
      "type": "function"
    },
    {
      "inputs": [
        {
          "internalType": "uint256",
          "name": "",
          "type": "uint256"
        },
        {
          "internalType": "uint256",
          "name": "",
          "type": "uint256"
        }
      ],
      "name": "AgainstVoters",
      "outputs": [
        {
          "internalType": "address",
          "name": "",
          "type": "address"
        }
      ],
      "stateMutability": "view",
      "type": "function"
    },
    {
      "inputs": [
        {
          "internalType": "uint256",
          "name": "",
          "type": "uint256"
        }
      ],
      "name": "AgainstWeight",
      "outputs": [
        {
          "internalType": "uint256",
          "name": "",
          "type": "uint256"
        }
      ],
      "stateMutability": "view",
      "type": "function"
    },
    {
      "inputs": [
        {
          "internalType": "uint256",
          "name": "",
          "type": "uint256"
        },
        {
          "internalType": "uint256",
          "name": "",
          "type": "uint256"
        }
      ],
      "name": "ForVoters",
      "outputs": [
        {
          "internalType": "address",
          "name": "",
          "type": "address"
        }
      ],
      "stateMutability": "view",
      "type": "function"
    },
    {
      "inputs": [
        {
          "internalType": "uint256",
          "name": "",
          "type": "uint256"
        }
      ],
      "name": "ForWeight",
      "outputs": [
        {
          "internalType": "uint256",
          "name": "",
          "type": "uint256"
        }
      ],
      "stateMutability": "view",
      "type": "function"
    },
    {
      "inputs": [
        {
          "internalType": "address",
          "name": "_orgAdmin",
          "type": "address"
        }
      ],
      "name": "OrgAdmin_Add",
      "outputs": [],
      "stateMutability": "nonpayable",
      "type": "function"
    },
    {
      "inputs": [
        {
          "internalType": "address",
          "name": "_add",
          "type": "address"
        }
      ],
      "name": "OrgAdmin_Check",
      "outputs": [
        {
          "internalType": "bool",
          "name": "",
          "type": "bool"
        }
      ],
      "stateMutability": "view",
      "type": "function"
    },
    {
      "inputs": [
        {
          "internalType": "address",
          "name": "_orgAdmin",
          "type": "address"
        }
      ],
      "name": "OrgAdmin_Remove",
      "outputs": [],
      "stateMutability": "nonpayable",
      "type": "function"
    },
    {
      "inputs": [
        {
          "internalType": "uint256",
          "name": "_proposalThresholdAmt",
          "type": "uint256"
        },
        {
          "internalType": "uint256",
          "name": "_votingThresholdAmt",
          "type": "uint256"
        },
        {
          "internalType": "uint256",
          "name": "_minStakingAmt",
          "type": "uint256"
        }
      ],
      "name": "Project_Add",
      "outputs": [
        {
          "internalType": "uint256",
          "name": "",
          "type": "uint256"
        }
      ],
      "stateMutability": "nonpayable",
      "type": "function"
    },
    {
      "inputs": [
        {
          "internalType": "uint256",
          "name": "_projectID",
          "type": "uint256"
        }
      ],
      "name": "Project_GetAllProposals",
      "outputs": [
        {
          "internalType": "uint256[]",
          "name": "",
          "type": "uint256[]"
        }
      ],
      "stateMutability": "view",
      "type": "function"
    },
    {
      "inputs": [
        {
          "internalType": "uint256",
          "name": "_projectID",
          "type": "uint256"
        }
      ],
      "name": "Project_GetProposalThrashold",
      "outputs": [
        {
          "internalType": "uint256",
          "name": "",
          "type": "uint256"
        }
      ],
      "stateMutability": "view",
      "type": "function"
    },
    {
      "inputs": [
        {
          "internalType": "uint256",
          "name": "_projectID",
          "type": "uint256"
        }
      ],
      "name": "Project_GetStakedInfo",
      "outputs": [
        {
          "internalType": "uint256",
          "name": "StakersCount",
          "type": "uint256"
        },
        {
          "internalType": "uint256",
          "name": "StakedAmount",
          "type": "uint256"
        }
      ],
      "stateMutability": "view",
      "type": "function"
    },
    {
      "inputs": [
        {
          "internalType": "uint256",
          "name": "_projectID",
          "type": "uint256"
        }
      ],
      "name": "Project_GetVotingThrashold",
      "outputs": [
        {
          "internalType": "uint256",
          "name": "",
          "type": "uint256"
        }
      ],
      "stateMutability": "view",
      "type": "function"
    },
    {
      "inputs": [
        {
          "internalType": "uint256",
          "name": "_projectID",
          "type": "uint256"
        },
        {
          "internalType": "uint256",
          "name": "_proposalThresholdAmt",
          "type": "uint256"
        }
      ],
      "name": "Project_SetProposalThrashold",
      "outputs": [],
      "stateMutability": "nonpayable",
      "type": "function"
    },
    {
      "inputs": [
        {
          "internalType": "uint256",
          "name": "_projectID",
          "type": "uint256"
        },
        {
          "internalType": "uint256",
          "name": "_votingThresholdAmt",
          "type": "uint256"
        }
      ],
      "name": "Project_SetVotingThrashold",
      "outputs": [],
      "stateMutability": "nonpayable",
      "type": "function"
    },
    {
      "inputs": [
        {
          "internalType": "uint256",
          "name": "_amount",
          "type": "uint256"
        },
        {
          "internalType": "uint256",
          "name": "_projectID",
          "type": "uint256"
        }
      ],
      "name": "Project_StakeMoney",
      "outputs": [],
      "stateMutability": "nonpayable",
      "type": "function"
    },
    {
      "inputs": [
        {
          "internalType": "uint256",
          "name": "",
          "type": "uint256"
        }
      ],
      "name": "Projects",
      "outputs": [
        {
          "internalType": "uint256",
          "name": "stakedAmount",
          "type": "uint256"
        },
        {
          "internalType": "uint256",
          "name": "stakersCount",
          "type": "uint256"
        },
        {
          "internalType": "uint256",
          "name": "proposalThresholdAmt",
          "type": "uint256"
        },
        {
          "internalType": "uint256",
          "name": "votingThresholdAmt",
          "type": "uint256"
        },
        {
          "internalType": "uint256",
          "name": "minStakingAmt",
          "type": "uint256"
        }
      ],
      "stateMutability": "view",
      "type": "function"
    },
    {
      "inputs": [],
      "name": "ProjectsCount",
      "outputs": [
        {
          "internalType": "uint256",
          "name": "",
          "type": "uint256"
        }
      ],
      "stateMutability": "view",
      "type": "function"
    },
    {
      "inputs": [
        {
          "internalType": "uint256",
          "name": "",
          "type": "uint256"
        }
      ],
      "name": "ProposalStates",
      "outputs": [
        {
          "internalType": "enum FilmDAO.ProposalState",
          "name": "",
          "type": "uint8"
        }
      ],
      "stateMutability": "view",
      "type": "function"
    },
    {
      "inputs": [
        {
          "internalType": "uint256",
          "name": "",
          "type": "uint256"
        },
        {
          "internalType": "address",
          "name": "",
          "type": "address"
        }
      ],
      "name": "ProposalVoters",
      "outputs": [
        {
          "internalType": "bool",
          "name": "",
          "type": "bool"
        }
      ],
      "stateMutability": "view",
      "type": "function"
    },
    {
      "inputs": [
        {
          "internalType": "uint256",
          "name": "_projectID",
          "type": "uint256"
        }
      ],
      "name": "Proposal_Add",
      "outputs": [
        {
          "internalType": "uint256",
          "name": "",
          "type": "uint256"
        }
      ],
      "stateMutability": "nonpayable",
      "type": "function"
    },
    {
      "inputs": [
        {
          "internalType": "uint8",
          "name": "_voteType",
          "type": "uint8"
        },
        {
          "internalType": "uint256",
          "name": "_projectID",
          "type": "uint256"
        },
        {
          "internalType": "uint256",
          "name": "_proposalID",
          "type": "uint256"
        }
      ],
      "name": "Proposal_CastVote",
      "outputs": [],
      "stateMutability": "nonpayable",
      "type": "function"
    },
    {
      "inputs": [
        {
          "internalType": "uint256",
          "name": "_projectID",
          "type": "uint256"
        },
        {
          "internalType": "uint256",
          "name": "_proposalID",
          "type": "uint256"
        }
      ],
      "name": "Proposal_EvaluateVotes",
      "outputs": [
        {
          "internalType": "uint256",
          "name": "VoteForWeight",
          "type": "uint256"
        },
        {
          "internalType": "uint256",
          "name": "VoteAgainstWeight",
          "type": "uint256"
        }
      ],
      "stateMutability": "nonpayable",
      "type": "function"
    },
    {
      "inputs": [
        {
          "internalType": "uint256",
          "name": "_proposalID",
          "type": "uint256"
        }
      ],
      "name": "Proposal_GetAbstainVoters",
      "outputs": [
        {
          "internalType": "address[]",
          "name": "",
          "type": "address[]"
        }
      ],
      "stateMutability": "view",
      "type": "function"
    },
    {
      "inputs": [
        {
          "internalType": "uint256",
          "name": "_proposalID",
          "type": "uint256"
        }
      ],
      "name": "Proposal_GetAgainstVoters",
      "outputs": [
        {
          "internalType": "address[]",
          "name": "",
          "type": "address[]"
        }
      ],
      "stateMutability": "view",
      "type": "function"
    },
    {
      "inputs": [
        {
          "internalType": "uint256",
          "name": "_proposalID",
          "type": "uint256"
        }
      ],
      "name": "Proposal_GetForVoters",
      "outputs": [
        {
          "internalType": "address[]",
          "name": "",
          "type": "address[]"
        }
      ],
      "stateMutability": "view",
      "type": "function"
    },
    {
      "inputs": [
        {
          "internalType": "uint256",
          "name": "_proposalID",
          "type": "uint256"
        }
      ],
      "name": "Proposal_GetState",
      "outputs": [
        {
          "internalType": "enum FilmDAO.ProposalState",
          "name": "",
          "type": "uint8"
        }
      ],
      "stateMutability": "view",
      "type": "function"
    },
    {
      "inputs": [
        {
          "internalType": "uint256",
          "name": "_proposalID",
          "type": "uint256"
        }
      ],
      "name": "Proposal_GetVoterCounts",
      "outputs": [
        {
          "internalType": "uint256",
          "name": "ForVotes",
          "type": "uint256"
        },
        {
          "internalType": "uint256",
          "name": "AgainstVotes",
          "type": "uint256"
        },
        {
          "internalType": "uint256",
          "name": "AbstainVotes",
          "type": "uint256"
        }
      ],
      "stateMutability": "view",
      "type": "function"
    },
    {
      "inputs": [
        {
          "internalType": "uint256",
          "name": "_proposalID",
          "type": "uint256"
        }
      ],
      "name": "Proposal_GetVotingWeights",
      "outputs": [
        {
          "internalType": "uint256",
          "name": "VoteForWeight",
          "type": "uint256"
        },
        {
          "internalType": "uint256",
          "name": "VoteAgainstWeight",
          "type": "uint256"
        }
      ],
      "stateMutability": "view",
      "type": "function"
    },
    {
      "inputs": [
        {
          "internalType": "uint256",
          "name": "_proposalID",
          "type": "uint256"
        },
        {
          "internalType": "enum FilmDAO.ProposalState",
          "name": "_state",
          "type": "uint8"
        }
      ],
      "name": "Proposal_SetState",
      "outputs": [],
      "stateMutability": "nonpayable",
      "type": "function"
    },
    {
      "inputs": [
        {
          "internalType": "uint256",
          "name": "_projectID",
          "type": "uint256"
        },
        {
          "internalType": "uint256",
          "name": "_proposalID",
          "type": "uint256"
        }
      ],
      "name": "Proposal_SetState_CloseVoting",
      "outputs": [
        {
          "internalType": "uint256",
          "name": "VoteForWeight",
          "type": "uint256"
        },
        {
          "internalType": "uint256",
          "name": "VoteAgainstWeight",
          "type": "uint256"
        }
      ],
      "stateMutability": "nonpayable",
      "type": "function"
    },
    {
      "inputs": [],
      "name": "ProposalsCount",
      "outputs": [
        {
          "internalType": "uint256",
          "name": "",
          "type": "uint256"
        }
      ],
      "stateMutability": "view",
      "type": "function"
    },
    {
      "inputs": [
        {
          "internalType": "uint256",
          "name": "",
          "type": "uint256"
        },
        {
          "internalType": "address",
          "name": "",
          "type": "address"
        }
      ],
      "name": "StakedAmounts",
      "outputs": [
        {
          "internalType": "uint256",
          "name": "",
          "type": "uint256"
        }
      ],
      "stateMutability": "view",
      "type": "function"
    },
    {
      "inputs": [],
      "name": "owner",
      "outputs": [
        {
          "internalType": "address",
          "name": "",
          "type": "address"
        }
      ],
      "stateMutability": "view",
      "type": "function"
    },
    {
      "inputs": [],
      "name": "renounceOwnership",
      "outputs": [],
      "stateMutability": "nonpayable",
      "type": "function"
    },
    {
      "inputs": [
        {
          "internalType": "address",
          "name": "newOwner",
          "type": "address"
        }
      ],
      "name": "transferOwnership",
      "outputs": [],
      "stateMutability": "nonpayable",
      "type": "function"
    }
  ],
  "bytecode": "0x60806040523480156200001157600080fd5b5062000032620000266200008b60201b60201c565b6200009360201b60201c565b6001806000620000476200008b60201b60201c565b73ffffffffffffffffffffffffffffffffffffffff1673ffffffffffffffffffffffffffffffffffffffff1681526020019081526020016000208190555062000157565b600033905090565b60008060009054906101000a900473ffffffffffffffffffffffffffffffffffffffff169050816000806101000a81548173ffffffffffffffffffffffffffffffffffffffff021916908373ffffffffffffffffffffffffffffffffffffffff1602179055508173ffffffffffffffffffffffffffffffffffffffff168173ffffffffffffffffffffffffffffffffffffffff167f8be0079c531659141344cd1fd0a4f28419497f9722a3daafe3b4186f6b6457e060405160405180910390a35050565b612f7a80620001676000396000f3fe608060405234801561001057600080fd5b50600436106102205760003560e01c8063715018a611610125578063bd28cc15116100ad578063d4334e6e1161007c578063d4334e6e1461074d578063e767b3a914610769578063f29134b914610785578063f2fde38b146107a3578063fa480f28146107bf57610221565b8063bd28cc15146106b4578063c0fcfc81146106d0578063cf8e1f7914610701578063d40b6f261461071d57610221565b80638da5cb5b116100f45780638da5cb5b146105e95780639574a7d914610607578063ac222b4814610637578063b1d80e0914610667578063b45ade531461068357610221565b8063715018a61461054e57806378c879ef146105585780637b0faef6146105885780638a9e6769146105b857610221565b806342720f21116101a85780634bb87e8e116101775780634bb87e8e1461047257806359b83976146104a25780636ae2fa5f146104d25780636dc74a3e146105025780637057d9ba1461051e57610221565b806342720f21146103c457806346cac832146103f45780634870f107146104125780634b4cfe241461044257610221565b8063309db032116101ef578063309db032146102e757806330ffd4c81461031757806332e99e8314610348578063361cdc6f146103645780633b99f0671461039457610221565b80630397c7eb146102235780630b08f5951461025357806317cc75f71461028357806321b2416c146102b357610221565b5b005b61023d600480360381019061023891906123f8565b6107f1565b60405161024a91906129be565b60405180910390f35b61026d60048036038101906102689190612357565b61083f565b60405161027a9190612c13565b60405180910390f35b61029d600480360381019061029891906123f8565b610a00565b6040516102aa91906129be565b60405180910390f35b6102cd60048036038101906102c89190612357565b610a4e565b6040516102de959493929190612c8e565b60405180910390f35b61030160048036038101906102fc9190612357565b610a84565b60405161030e91906129d9565b60405180910390f35b610331600480360381019061032c91906123f8565b610b25565b60405161033f929190612c2e565b60405180910390f35b610362600480360381019061035d91906123bc565b610de4565b005b61037e60048036038101906103799190612357565b610ee9565b60405161038b91906129fb565b60405180910390f35b6103ae60048036038101906103a99190612357565b610f57565b6040516103bb9190612a38565b60405180910390f35b6103de60048036038101906103d9919061232e565b610f77565b6040516103eb9190612a1d565b60405180910390f35b6103fc610fd0565b6040516104099190612c13565b60405180910390f35b61042c60048036038101906104279190612357565b610fd6565b60405161043991906129d9565b60405180910390f35b61045c60048036038101906104579190612357565b611077565b6040516104699190612c13565b60405180910390f35b61048c60048036038101906104879190612357565b61108f565b6040516104999190612c13565b60405180910390f35b6104bc60048036038101906104b79190612357565b6110a7565b6040516104c99190612c13565b60405180910390f35b6104ec60048036038101906104e79190612434565b6110c7565b6040516104f99190612c13565b60405180910390f35b61051c6004803603810190610517919061232e565b6111ab565b005b61053860048036038101906105339190612357565b6111fb565b60405161054591906129d9565b60405180910390f35b61055661129c565b005b610572600480360381019061056d9190612380565b6112b0565b60405161057f9190612c13565b60405180910390f35b6105a2600480360381019061059d9190612357565b6112d5565b6040516105af9190612a38565b60405180910390f35b6105d260048036038101906105cd9190612357565b6112ff565b6040516105e0929190612c2e565b60405180910390f35b6105f1611339565b6040516105fe91906129be565b60405180910390f35b610621600480360381019061061c91906123f8565b611362565b60405161062e91906129be565b60405180910390f35b610651600480360381019061064c9190612380565b6113b0565b60405161065e9190612a1d565b60405180910390f35b610681600480360381019061067c919061232e565b6113df565b005b61069d600480360381019061069891906123f8565b61142e565b6040516106ab929190612c2e565b60405180910390f35b6106ce60048036038101906106c991906123f8565b611631565b005b6106ea60048036038101906106e59190612357565b61169f565b6040516106f8929190612c2e565b60405180910390f35b61071b600480360381019061071691906123f8565b6116d3565b005b61073760048036038101906107329190612357565b611922565b6040516107449190612c13565b60405180910390f35b610767600480360381019061076291906123f8565b611942565b005b610783600480360381019061077e9190612483565b6119b0565b005b61078d6120af565b60405161079a9190612c13565b60405180910390f35b6107bd60048036038101906107b8919061232e565b6120b5565b005b6107d960048036038101906107d49190612357565b612139565b6040516107e893929190612c57565b60405180910390f35b6006602052816000526040600020818154811061080d57600080fd5b906000526020600020016000915091509054906101000a900473ffffffffffffffffffffffffffffffffffffffff1681565b6000600c5482111580156108535750600082115b610892576040517f08c379a000000000000000000000000000000000000000000000000000000000815260040161088990612bd3565b60405180910390fd5b60096000838152602001908152602001600020600201546008600084815260200190815260200160002060003373ffffffffffffffffffffffffffffffffffffffff1673ffffffffffffffffffffffffffffffffffffffff16815260200190815260200160002054101561093b576040517f08c379a000000000000000000000000000000000000000000000000000000000815260040161093290612a93565b60405180910390fd5b600b600081548092919061094e90612e34565b919050555060096000838152602001908152602001600020600501600b5490806001815401808255809150506001900390600052602060002001600090919091909150556000600a6000600b54815260200190815260200160002060006101000a81548160ff021916908360068111156109f1577f4e487b7100000000000000000000000000000000000000000000000000000000600052602160045260246000fd5b0217905550600b549050919050565b60046020528160005260406000208181548110610a1c57600080fd5b906000526020600020016000915091509054906101000a900473ffffffffffffffffffffffffffffffffffffffff1681565b60096020528060005260406000206000915090508060000154908060010154908060020154908060030154908060040154905085565b606060046000838152602001908152602001600020805480602002602001604051908101604052809291908181526020018280548015610b1957602002820191906000526020600020905b8160009054906101000a900473ffffffffffffffffffffffffffffffffffffffff1673ffffffffffffffffffffffffffffffffffffffff1681526020019060010190808311610acf575b50505050509050919050565b60008060011515610b3533610f77565b151514610b77576040517f08c379a0000000000000000000000000000000000000000000000000000000008152600401610b6e90612b53565b60405180910390fd5b600c548411158015610b895750600084115b610bc8576040517f08c379a0000000000000000000000000000000000000000000000000000000008152600401610bbf90612bd3565b60405180910390fd5b600b548311158015610bda5750600083115b610c19576040517f08c379a0000000000000000000000000000000000000000000000000000000008152600401610c1090612b73565b60405180910390fd5b6000806000806009600089815260200190815260200160002060000154925060008311610c7b576040517f08c379a0000000000000000000000000000000000000000000000000000000008152600401610c7290612a73565b60405180910390fd5b600093505b6004600088815260200190815260200160002080549050841015610d0f576008600089815260200190815260200160002060003373ffffffffffffffffffffffffffffffffffffffff1673ffffffffffffffffffffffffffffffffffffffff1681526020019081526020016000205482610cfa9190612d64565b91508380610d0790612e34565b945050610c80565b600093505b6005600088815260200190815260200160002080549050841015610da3576008600089815260200190815260200160002060003373ffffffffffffffffffffffffffffffffffffffff1673ffffffffffffffffffffffffffffffffffffffff1681526020019081526020016000205481610d8e9190612d64565b90508380610d9b90612e34565b945050610d14565b816002600089815260200190815260200160002081905550806003600089815260200190815260200160002081905550818195509550505050509250929050565b60011515610df133610f77565b151514610e33576040517f08c379a0000000000000000000000000000000000000000000000000000000008152600401610e2a90612b53565b60405180910390fd5b600b548211158015610e455750600082115b610e84576040517f08c379a0000000000000000000000000000000000000000000000000000000008152600401610e7b90612b73565b60405180910390fd5b80600a600084815260200190815260200160002060006101000a81548160ff02191690836006811115610ee0577f4e487b7100000000000000000000000000000000000000000000000000000000600052602160045260246000fd5b02179055505050565b606060096000838152602001908152602001600020600501805480602002602001604051908101604052809291908181526020018280548015610f4b57602002820191906000526020600020905b815481526020019060010190808311610f37575b50505050509050919050565b600a6020528060005260406000206000915054906101000a900460ff1681565b600080600160008473ffffffffffffffffffffffffffffffffffffffff1673ffffffffffffffffffffffffffffffffffffffff1681526020019081526020016000205411610fc6576000610fc9565b60015b9050919050565b600c5481565b60606006600083815260200190815260200160002080548060200260200160405190810160405280929190818152602001828054801561106b57602002820191906000526020600020905b8160009054906101000a900473ffffffffffffffffffffffffffffffffffffffff1673ffffffffffffffffffffffffffffffffffffffff1681526020019060010190808311611021575b50505050509050919050565b60026020528060005260406000206000915090505481565b60036020528060005260406000206000915090505481565b600060096000838152602001908152602001600020600201549050919050565b6000600115156110d633610f77565b151514611118576040517f08c379a000000000000000000000000000000000000000000000000000000000815260040161110f90612af3565b60405180910390fd5b600c60008154809291906001019190505550600060096000600c548152602001908152602001600020600001819055508360096000600c548152602001908152602001600020600201819055508260096000600c548152602001908152602001600020600301819055508160096000600c54815260200190815260200160002060040181905550600c5490509392505050565b6111b3612190565b6000600160008373ffffffffffffffffffffffffffffffffffffffff1673ffffffffffffffffffffffffffffffffffffffff1681526020019081526020016000208190555050565b60606005600083815260200190815260200160002080548060200260200160405190810160405280929190818152602001828054801561129057602002820191906000526020600020905b8160009054906101000a900473ffffffffffffffffffffffffffffffffffffffff1673ffffffffffffffffffffffffffffffffffffffff1681526020019060010190808311611246575b50505050509050919050565b6112a4612190565b6112ae600061220e565b565b6008602052816000526040600020602052806000526040600020600091509150505481565b6000600a600083815260200190815260200160002060009054906101000a900460ff169050919050565b6000806009600084815260200190815260200160002060010154600960008581526020019081526020016000206000015491509150915091565b60008060009054906101000a900473ffffffffffffffffffffffffffffffffffffffff16905090565b6005602052816000526040600020818154811061137e57600080fd5b906000526020600020016000915091509054906101000a900473ffffffffffffffffffffffffffffffffffffffff1681565b60076020528160005260406000206020528060005260406000206000915091509054906101000a900460ff1681565b6113e7612190565b60018060008373ffffffffffffffffffffffffffffffffffffffff1673ffffffffffffffffffffffffffffffffffffffff1681526020019081526020016000208190555050565b6000806001151561143e33610f77565b151514611480576040517f08c379a000000000000000000000000000000000000000000000000000000000815260040161147790612b53565b60405180910390fd5b600c5484111580156114925750600084115b6114d1576040517f08c379a00000000000000000000000000000000000000000000000000000000081526004016114c890612bd3565b60405180910390fd5b600b5483111580156114e35750600083115b611522576040517f08c379a000000000000000000000000000000000000000000000000000000000815260040161151990612b73565b60405180910390fd5b60008060036000868152602001908152602001600020549050600260008681526020019081526020016000205491508082106115bf576004600a600087815260200190815260200160002060006101000a81548160ff021916908360068111156115b5577f4e487b7100000000000000000000000000000000000000000000000000000000600052602160045260246000fd5b0217905550611622565b6003600a600087815260200190815260200160002060006101000a81548160ff0219169083600681111561161c577f4e487b7100000000000000000000000000000000000000000000000000000000600052602160045260246000fd5b02179055505b81819350935050509250929050565b6001151561163e33610f77565b151514611680576040517f08c379a000000000000000000000000000000000000000000000000000000000815260040161167790612b33565b60405180910390fd5b8060096000848152602001908152602001600020600201819055505050565b6000806002600084815260200190815260200160002054600360008581526020019081526020016000205491509150915091565b60008211611716576040517f08c379a000000000000000000000000000000000000000000000000000000000815260040161170d90612bf3565b60405180910390fd5b600c5481111580156117285750600081115b611767576040517f08c379a000000000000000000000000000000000000000000000000000000000815260040161175e90612bd3565b60405180910390fd5b60096000600c54815260200190815260200160002060040154826008600084815260200190815260200160002060003373ffffffffffffffffffffffffffffffffffffffff1673ffffffffffffffffffffffffffffffffffffffff168152602001908152602001600020546117dc9190612d64565b101561181d576040517f08c379a000000000000000000000000000000000000000000000000000000000815260040161181490612a53565b60405180910390fd5b81600960008381526020019081526020016000206000016000828254019250508190555060006008600083815260200190815260200160002060003373ffffffffffffffffffffffffffffffffffffffff1673ffffffffffffffffffffffffffffffffffffffff1681526020019081526020016000205414156118c057600160096000838152602001908152602001600020600101600082825401925050819055505b816008600083815260200190815260200160002060003373ffffffffffffffffffffffffffffffffffffffff1673ffffffffffffffffffffffffffffffffffffffff168152602001908152602001600020600082825401925050819055505050565b600060096000838152602001908152602001600020600301549050919050565b6001151561194f33610f77565b151514611991576040517f08c379a000000000000000000000000000000000000000000000000000000000815260040161198890612b33565b60405180910390fd5b8060096000848152602001908152602001600020600301819055505050565b600c5482111580156119c25750600082115b611a01576040517f08c379a00000000000000000000000000000000000000000000000000000000081526004016119f890612bd3565b60405180910390fd5b600b548111158015611a135750600081115b611a52576040517f08c379a0000000000000000000000000000000000000000000000000000000008152600401611a4990612b73565b60405180910390fd5b600015156007600083815260200190815260200160002060003373ffffffffffffffffffffffffffffffffffffffff1673ffffffffffffffffffffffffffffffffffffffff16815260200190815260200160002060009054906101000a900460ff16151514611af6576040517f08c379a0000000000000000000000000000000000000000000000000000000008152600401611aed90612ab3565b60405180910390fd5b60096000838152602001908152602001600020600301546008600084815260200190815260200160002060003373ffffffffffffffffffffffffffffffffffffffff1673ffffffffffffffffffffffffffffffffffffffff168152602001908152602001600020541015611b9f576040517f08c379a0000000000000000000000000000000000000000000000000000000008152600401611b9690612a93565b60405180910390fd5b60026006811115611bd9577f4e487b7100000000000000000000000000000000000000000000000000000000600052602160045260246000fd5b600a600083815260200190815260200160002060009054906101000a900460ff166006811115611c32577f4e487b7100000000000000000000000000000000000000000000000000000000600052602160045260246000fd5b14611c72576040517f08c379a0000000000000000000000000000000000000000000000000000000008152600401611c6990612b93565b60405180910390fd5b60006009600084815260200190815260200160002060000154905060008111611cd0576040517f08c379a0000000000000000000000000000000000000000000000000000000008152600401611cc790612a73565b60405180910390fd5b60016007600084815260200190815260200160002060003373ffffffffffffffffffffffffffffffffffffffff1673ffffffffffffffffffffffffffffffffffffffff16815260200190815260200160002060006101000a81548160ff02191690831515021790555060006002811115611d73577f4e487b7100000000000000000000000000000000000000000000000000000000600052602160045260246000fd5b60ff168460ff161415611e735760056000838152602001908152602001600020339080600181540180825580915050600190039060005260206000200160009091909190916101000a81548173ffffffffffffffffffffffffffffffffffffffff021916908373ffffffffffffffffffffffffffffffffffffffff1602179055506008600084815260200190815260200160002060003373ffffffffffffffffffffffffffffffffffffffff1673ffffffffffffffffffffffffffffffffffffffff16815260200190815260200160002054600360008481526020019081526020016000206000828254611e679190612d64565b925050819055506120a9565b60016002811115611ead577f4e487b7100000000000000000000000000000000000000000000000000000000600052602160045260246000fd5b60ff168460ff161415611fad5760046000838152602001908152602001600020339080600181540180825580915050600190039060005260206000200160009091909190916101000a81548173ffffffffffffffffffffffffffffffffffffffff021916908373ffffffffffffffffffffffffffffffffffffffff1602179055506008600084815260200190815260200160002060003373ffffffffffffffffffffffffffffffffffffffff1673ffffffffffffffffffffffffffffffffffffffff16815260200190815260200160002054600260008481526020019081526020016000206000828254611fa19190612d64565b925050819055506120a8565b600280811115611fe6577f4e487b7100000000000000000000000000000000000000000000000000000000600052602160045260246000fd5b60ff168460ff16141561206c5760066000838152602001908152602001600020339080600181540180825580915050600190039060005260206000200160009091909190916101000a81548173ffffffffffffffffffffffffffffffffffffffff021916908373ffffffffffffffffffffffffffffffffffffffff1602179055506120a7565b6040517f08c379a000000000000000000000000000000000000000000000000000000000815260040161209e90612b13565b60405180910390fd5b5b5b50505050565b600b5481565b6120bd612190565b600073ffffffffffffffffffffffffffffffffffffffff168173ffffffffffffffffffffffffffffffffffffffff16141561212d576040517f08c379a000000000000000000000000000000000000000000000000000000000815260040161212490612ad3565b60405180910390fd5b6121368161220e565b50565b60008060006004600085815260200190815260200160002080549050600560008681526020019081526020016000208054905060066000878152602001908152602001600020805490509250925092509193909250565b6121986122d2565b73ffffffffffffffffffffffffffffffffffffffff166121b6611339565b73ffffffffffffffffffffffffffffffffffffffff161461220c576040517f08c379a000000000000000000000000000000000000000000000000000000000815260040161220390612bb3565b60405180910390fd5b565b60008060009054906101000a900473ffffffffffffffffffffffffffffffffffffffff169050816000806101000a81548173ffffffffffffffffffffffffffffffffffffffff021916908373ffffffffffffffffffffffffffffffffffffffff1602179055508173ffffffffffffffffffffffffffffffffffffffff168173ffffffffffffffffffffffffffffffffffffffff167f8be0079c531659141344cd1fd0a4f28419497f9722a3daafe3b4186f6b6457e060405160405180910390a35050565b600033905090565b6000813590506122e981612eef565b92915050565b6000813590506122fe81612f06565b92915050565b60008135905061231381612f16565b92915050565b60008135905061232881612f2d565b92915050565b60006020828403121561234057600080fd5b600061234e848285016122da565b91505092915050565b60006020828403121561236957600080fd5b600061237784828501612304565b91505092915050565b6000806040838503121561239357600080fd5b60006123a185828601612304565b92505060206123b2858286016122da565b9150509250929050565b600080604083850312156123cf57600080fd5b60006123dd85828601612304565b92505060206123ee858286016122ef565b9150509250929050565b6000806040838503121561240b57600080fd5b600061241985828601612304565b925050602061242a85828601612304565b9150509250929050565b60008060006060848603121561244957600080fd5b600061245786828701612304565b935050602061246886828701612304565b925050604061247986828701612304565b9150509250925092565b60008060006060848603121561249857600080fd5b60006124a686828701612319565b93505060206124b786828701612304565b92505060406124c886828701612304565b9150509250925092565b60006124de8383612502565b60208301905092915050565b60006124f683836129a0565b60208301905092915050565b61250b81612dba565b82525050565b61251a81612dba565b82525050565b600061252b82612d01565b6125358185612d31565b935061254083612ce1565b8060005b8381101561257157815161255888826124d2565b975061256383612d17565b925050600181019050612544565b5085935050505092915050565b600061258982612d0c565b6125938185612d42565b935061259e83612cf1565b8060005b838110156125cf5781516125b688826124ea565b97506125c183612d24565b9250506001810190506125a2565b5085935050505092915050565b6125e581612dcc565b82525050565b6125f481612e22565b82525050565b6000612607601283612d53565b91507f4c6f77207374616b696e6720616d6f756e7400000000000000000000000000006000830152602082019050919050565b6000612647601083612d53565b91507f4e6f20416d6f756e74205374616b6564000000000000000000000000000000006000830152602082019050919050565b6000612687601183612d53565b91507f4c6f77207374616b656420616d6f756e740000000000000000000000000000006000830152602082019050919050565b60006126c7600d83612d53565b91507f416c726561647920566f746564000000000000000000000000000000000000006000830152602082019050919050565b6000612707602683612d53565b91507f4f776e61626c653a206e6577206f776e657220697320746865207a65726f206160008301527f64647265737300000000000000000000000000000000000000000000000000006020830152604082019050919050565b600061276d602083612d53565b91507f4f6e6c792061646d696e732063616e206372656174652070726f6a656374732e6000830152602082019050919050565b60006127ad601a83612d53565b91507f696e76616c69642076616c756520666f7220566f7465547970650000000000006000830152602082019050919050565b60006127ed601b83612d53565b91507f4f6e6c792061646d696e732063616e207365742076616c7565732e00000000006000830152602082019050919050565b600061282d601d83612d53565b91507f4f6e6c792061646d696e732063616e206368616e67652073746174652e0000006000830152602082019050919050565b600061286d601383612d53565b91507f496e76616c69642050726f706f73616c204944000000000000000000000000006000830152602082019050919050565b60006128ad601c83612d53565b91507f50726f706f73616c206e6f74206f70656e20666f7220566f74696e67000000006000830152602082019050919050565b60006128ed602083612d53565b91507f4f776e61626c653a2063616c6c6572206973206e6f7420746865206f776e65726000830152602082019050919050565b600061292d601283612d53565b91507f496e76616c69642050726f6a65637420494400000000000000000000000000006000830152602082019050919050565b600061296d600f83612d53565b91507f496e76616c696420416d6f756e742e00000000000000000000000000000000006000830152602082019050919050565b6129a981612e0b565b82525050565b6129b881612e0b565b82525050565b60006020820190506129d36000830184612511565b92915050565b600060208201905081810360008301526129f38184612520565b905092915050565b60006020820190508181036000830152612a15818461257e565b905092915050565b6000602082019050612a3260008301846125dc565b92915050565b6000602082019050612a4d60008301846125eb565b92915050565b60006020820190508181036000830152612a6c816125fa565b9050919050565b60006020820190508181036000830152612a8c8161263a565b9050919050565b60006020820190508181036000830152612aac8161267a565b9050919050565b60006020820190508181036000830152612acc816126ba565b9050919050565b60006020820190508181036000830152612aec816126fa565b9050919050565b60006020820190508181036000830152612b0c81612760565b9050919050565b60006020820190508181036000830152612b2c816127a0565b9050919050565b60006020820190508181036000830152612b4c816127e0565b9050919050565b60006020820190508181036000830152612b6c81612820565b9050919050565b60006020820190508181036000830152612b8c81612860565b9050919050565b60006020820190508181036000830152612bac816128a0565b9050919050565b60006020820190508181036000830152612bcc816128e0565b9050919050565b60006020820190508181036000830152612bec81612920565b9050919050565b60006020820190508181036000830152612c0c81612960565b9050919050565b6000602082019050612c2860008301846129af565b92915050565b6000604082019050612c4360008301856129af565b612c5060208301846129af565b9392505050565b6000606082019050612c6c60008301866129af565b612c7960208301856129af565b612c8660408301846129af565b949350505050565b600060a082019050612ca360008301886129af565b612cb060208301876129af565b612cbd60408301866129af565b612cca60608301856129af565b612cd760808301846129af565b9695505050505050565b6000819050602082019050919050565b6000819050602082019050919050565b600081519050919050565b600081519050919050565b6000602082019050919050565b6000602082019050919050565b600082825260208201905092915050565b600082825260208201905092915050565b600082825260208201905092915050565b6000612d6f82612e0b565b9150612d7a83612e0b565b9250827fffffffffffffffffffffffffffffffffffffffffffffffffffffffffffffffff03821115612daf57612dae612e7d565b5b828201905092915050565b6000612dc582612deb565b9050919050565b60008115159050919050565b6000819050612de682612edb565b919050565b600073ffffffffffffffffffffffffffffffffffffffff82169050919050565b6000819050919050565b600060ff82169050919050565b6000612e2d82612dd8565b9050919050565b6000612e3f82612e0b565b91507fffffffffffffffffffffffffffffffffffffffffffffffffffffffffffffffff821415612e7257612e71612e7d565b5b600182019050919050565b7f4e487b7100000000000000000000000000000000000000000000000000000000600052601160045260246000fd5b7f4e487b7100000000000000000000000000000000000000000000000000000000600052602160045260246000fd5b60078110612eec57612eeb612eac565b5b50565b612ef881612dba565b8114612f0357600080fd5b50565b60078110612f1357600080fd5b50565b612f1f81612e0b565b8114612f2a57600080fd5b50565b612f3681612e15565b8114612f4157600080fd5b5056fea2646970667358221220dcb5f6bb9556801054b07f5c6a1f299796ebe14138f0a83f7eefe529609d83e264736f6c63430008000033",
  "linkReferences": {},
  "deployedLinkReferences": {}
}